{
  "contractName": "MyTokenFactory",
  "abi": [
    {
      "constant": true,
      "inputs": [
        {
          "name": "",
          "type": "address"
        }
      ],
      "name": "isInstantiation",
      "outputs": [
        {
          "name": "",
          "type": "bool"
        }
      ],
      "payable": false,
      "stateMutability": "view",
      "type": "function",
      "signature": "0x2f4f3316"
    },
    {
      "constant": true,
      "inputs": [
        {
          "name": "",
          "type": "uint256"
        }
      ],
      "name": "instantiations",
      "outputs": [
        {
          "name": "",
          "type": "address"
        }
      ],
      "payable": false,
      "stateMutability": "view",
      "type": "function",
      "signature": "0xb7de9dae"
    },
    {
      "constant": true,
      "inputs": [],
      "name": "getInstantiations",
      "outputs": [
        {
          "name": "",
          "type": "address[]"
        }
      ],
      "payable": false,
      "stateMutability": "view",
      "type": "function",
      "signature": "0xc1ad191a"
    },
    {
      "anonymous": false,
      "inputs": [
        {
          "indexed": false,
          "name": "sender",
          "type": "address"
        },
        {
          "indexed": false,
          "name": "instantiation",
          "type": "address"
        }
      ],
      "name": "ContractInstantiation",
      "type": "event",
      "signature": "0x4fb057ad4a26ed17a57957fa69c306f11987596069b89521c511fc9a894e6161"
    },
    {
      "constant": false,
      "inputs": [
        {
          "name": "_name",
          "type": "string"
        },
        {
          "name": "_symbol",
          "type": "string"
        },
        {
          "name": "_action1",
          "type": "string"
        },
        {
          "name": "_action2",
          "type": "string"
        },
        {
          "name": "_action3",
          "type": "string"
        },
        {
          "name": "_prices",
          "type": "uint256[]"
        }
      ],
      "name": "create",
      "outputs": [
        {
          "name": "tokenAddress",
          "type": "address"
        }
      ],
      "payable": false,
      "stateMutability": "nonpayable",
      "type": "function",
      "signature": "0x157607f7"
    }
  ],
  "bytecode": "0x608060405234801561001057600080fd5b50612e01806100206000396000f300608060405260043610610062576000357c0100000000000000000000000000000000000000000000000000000000900463ffffffff168063157607f7146100675780632f4f33161461026b578063b7de9dae146102c6578063c1ad191a14610333575b600080fd5b34801561007357600080fd5b50610229600480360381019080803590602001908201803590602001908080601f0160208091040260200160405190810160405280939291908181526020018383808284378201915050505050509192919290803590602001908201803590602001908080601f0160208091040260200160405190810160405280939291908181526020018383808284378201915050505050509192919290803590602001908201803590602001908080601f0160208091040260200160405190810160405280939291908181526020018383808284378201915050505050509192919290803590602001908201803590602001908080601f0160208091040260200160405190810160405280939291908181526020018383808284378201915050505050509192919290803590602001908201803590602001908080601f01602080910402602001604051908101604052809392919081815260200183838082843782019150505050505091929192908035906020019082018035906020019080806020026020016040519081016040528093929190818152602001838360200280828437820191505050505050919291929050505061039f565b604051808273ffffffffffffffffffffffffffffffffffffffff1673ffffffffffffffffffffffffffffffffffffffff16815260200191505060405180910390f35b34801561027757600080fd5b506102ac600480360381019080803573ffffffffffffffffffffffffffffffffffffffff16906020019092919050505061067c565b604051808215151515815260200191505060405180910390f35b3480156102d257600080fd5b506102f16004803603810190808035906020019092919050505061069c565b604051808273ffffffffffffffffffffffffffffffffffffffff1673ffffffffffffffffffffffffffffffffffffffff16815260200191505060405180910390f35b34801561033f57600080fd5b506103486106da565b6040518080602001828103825283818151815260200191508051906020019060200280838360005b8381101561038b578082015181840152602081019050610370565b505050509050019250505060405180910390f35b6000868633878787876103b06108bf565b8080602001806020018873ffffffffffffffffffffffffffffffffffffffff1673ffffffffffffffffffffffffffffffffffffffff1681526020018060200180602001806020018060200187810387528e818151815260200191508051906020019080838360005b83811015610433578082015181840152602081019050610418565b50505050905090810190601f1680156104605780820380516001836020036101000a031916815260200191505b5087810386528d818151815260200191508051906020019080838360005b8381101561049957808201518184015260208101905061047e565b50505050905090810190601f1680156104c65780820380516001836020036101000a031916815260200191505b5087810385528b818151815260200191508051906020019080838360005b838110156104ff5780820151818401526020810190506104e4565b50505050905090810190601f16801561052c5780820380516001836020036101000a031916815260200191505b5087810384528a818151815260200191508051906020019080838360005b8381101561056557808201518184015260208101905061054a565b50505050905090810190601f1680156105925780820380516001836020036101000a031916815260200191505b50878103835289818151815260200191508051906020019080838360005b838110156105cb5780820151818401526020810190506105b0565b50505050905090810190601f1680156105f85780820380516001836020036101000a031916815260200191505b50878103825288818151815260200191508051906020019060200280838360005b83811015610634578082015181840152602081019050610619565b505050509050019d5050505050505050505050505050604051809103906000f080158015610666573d6000803e3d6000fd5b50905061067281610768565b9695505050505050565b60006020528060005260406000206000915054906101000a900460ff1681565b6001818154811015156106ab57fe5b906000526020600020016000915054906101000a900473ffffffffffffffffffffffffffffffffffffffff1681565b6060600180548060200260200160405190810160405280929190818152602001828054801561075e57602002820191906000526020600020905b8160009054906101000a900473ffffffffffffffffffffffffffffffffffffffff1673ffffffffffffffffffffffffffffffffffffffff1681526020019060010190808311610714575b5050505050905090565b60016000808373ffffffffffffffffffffffffffffffffffffffff1673ffffffffffffffffffffffffffffffffffffffff16815260200190815260200160002060006101000a81548160ff02191690831515021790555060018190806001815401808255809150509060018203906000526020600020016000909192909190916101000a81548173ffffffffffffffffffffffffffffffffffffffff021916908373ffffffffffffffffffffffffffffffffffffffff160217905550507f4fb057ad4a26ed17a57957fa69c306f11987596069b89521c511fc9a894e61613382604051808373ffffffffffffffffffffffffffffffffffffffff1673ffffffffffffffffffffffffffffffffffffffff1681526020018273ffffffffffffffffffffffffffffffffffffffff1673ffffffffffffffffffffffffffffffffffffffff1681526020019250505060405180910390a150565b604051612506806108d083390190560060806040526001600b60006101000a81548160ff021916908360ff1602179055506103e8600b60016101000a81548163ffffffff021916908363ffffffff1602179055506012600b60056101000a81548160ff021916908360ff1602179055503480156200006c57600080fd5b506040516200250638038062002506833981018060405281019080805182019291906020018051820192919060200180519060200190929190805182019291906020018051820192919060200180518201929190602001805182019291905050508660049080519060200190620000e5929190620001b1565b508560059080519060200190620000fe929190620001b1565b5084600660006101000a81548173ffffffffffffffffffffffffffffffffffffffff021916908373ffffffffffffffffffffffffffffffffffffffff160217905550836007908051906020019062000158929190620001b1565b50826008908051906020019062000171929190620001b1565b5081600990805190602001906200018a929190620001b1565b5080600a9080519060200190620001a392919062000238565b5050505050505050620002b2565b828054600181600116156101000203166002900490600052602060002090601f016020900481019282601f10620001f457805160ff191683800117855562000225565b8280016001018555821562000225579182015b828111156200022457825182559160200191906001019062000207565b5b5090506200023491906200028a565b5090565b82805482825590600052602060002090810192821562000277579160200282015b828111156200027657825182559160200191906001019062000259565b5b5090506200028691906200028a565b5090565b620002af91905b80821115620002ab57600081600090555060010162000291565b5090565b90565b61224480620002c26000396000f300608060405260043610610149576000357c0100000000000000000000000000000000000000000000000000000000900463ffffffff16806306fdde031461014e578063095ea7b3146101de5780631806bd0a1461024357806318160ddd146102d357806323b872dd146102fe5780632f8be60214610383578063313ce5671461041357806342966c68146104445780634cb2a2d31461047157806352f6ee5814610501578063621d853114610532578063661884631461059857806370a08231146105fd5780638da5cb5b1461065457806392829428146106ab57806395d89b41146106e257806396365d4414610772578063a0712d681461079d578063a9059cbb146107bd578063b9d3674314610822578063bc31c1c114610863578063c544682b146108a4578063d73dd623146108e5578063dd62ed3e1461094a578063e690b0e2146109c1575b600080fd5b34801561015a57600080fd5b50610163610a2a565b6040518080602001828103825283818151815260200191508051906020019080838360005b838110156101a3578082015181840152602081019050610188565b50505050905090810190601f1680156101d05780820380516001836020036101000a031916815260200191505b509250505060405180910390f35b3480156101ea57600080fd5b50610229600480360381019080803573ffffffffffffffffffffffffffffffffffffffff16906020019092919080359060200190929190505050610ac8565b604051808215151515815260200191505060405180910390f35b34801561024f57600080fd5b50610258610bba565b6040518080602001828103825283818151815260200191508051906020019080838360005b8381101561029857808201518184015260208101905061027d565b50505050905090810190601f1680156102c55780820380516001836020036101000a031916815260200191505b509250505060405180910390f35b3480156102df57600080fd5b506102e8610c58565b6040518082815260200191505060405180910390f35b34801561030a57600080fd5b50610369600480360381019080803573ffffffffffffffffffffffffffffffffffffffff169060200190929190803573ffffffffffffffffffffffffffffffffffffffff16906020019092919080359060200190929190505050610c62565b604051808215151515815260200191505060405180910390f35b34801561038f57600080fd5b5061039861101d565b6040518080602001828103825283818151815260200191508051906020019080838360005b838110156103d85780820151818401526020810190506103bd565b50505050905090810190601f1680156104055780820380516001836020036101000a031916815260200191505b509250505060405180910390f35b34801561041f57600080fd5b506104286110bb565b604051808260ff1660ff16815260200191505060405180910390f35b34801561045057600080fd5b5061046f600480360381019080803590602001909291905050506110ce565b005b34801561047d57600080fd5b5061048661127b565b6040518080602001828103825283818151815260200191508051906020019080838360005b838110156104c65780820151818401526020810190506104ab565b50505050905090810190601f1680156104f35780820380516001836020036101000a031916815260200191505b509250505060405180910390f35b34801561050d57600080fd5b50610516611319565b604051808260ff1660ff16815260200191505060405180910390f35b610596600480360381019080803590602001908201803590602001908080601f01602080910402602001604051908101604052809392919081815260200183838082843782019150505050505091929192908035906020019092919050505061132c565b005b3480156105a457600080fd5b506105e3600480360381019080803573ffffffffffffffffffffffffffffffffffffffff1690602001909291908035906020019092919050505061148f565b604051808215151515815260200191505060405180910390f35b34801561060957600080fd5b5061063e600480360381019080803573ffffffffffffffffffffffffffffffffffffffff169060200190929190505050611721565b6040518082815260200191505060405180910390f35b34801561066057600080fd5b50610669611769565b604051808273ffffffffffffffffffffffffffffffffffffffff1673ffffffffffffffffffffffffffffffffffffffff16815260200191505060405180910390f35b3480156106b757600080fd5b506106c061178f565b604051808263ffffffff1663ffffffff16815260200191505060405180910390f35b3480156106ee57600080fd5b506106f76117a5565b6040518080602001828103825283818151815260200191508051906020019080838360005b8381101561073757808201518184015260208101905061071c565b50505050905090810190601f1680156107645780820380516001836020036101000a031916815260200191505b509250505060405180910390f35b34801561077e57600080fd5b50610787611843565b6040518082815260200191505060405180910390f35b6107bb60048036038101908080359060200190929190505050611849565b005b3480156107c957600080fd5b50610808600480360381019080803573ffffffffffffffffffffffffffffffffffffffff169060200190929190803590602001909291905050506119c3565b604051808215151515815260200191505060405180910390f35b34801561082e57600080fd5b5061084d60048036038101908080359060200190929190505050611be3565b6040518082815260200191505060405180910390f35b34801561086f57600080fd5b5061088e60048036038101908080359060200190929190505050611c1d565b6040518082815260200191505060405180910390f35b3480156108b057600080fd5b506108cf60048036038101908080359060200190929190505050611c40565b6040518082815260200191505060405180910390f35b3480156108f157600080fd5b50610930600480360381019080803573ffffffffffffffffffffffffffffffffffffffff16906020019092919080359060200190929190505050611c7a565b604051808215151515815260200191505060405180910390f35b34801561095657600080fd5b506109ab600480360381019080803573ffffffffffffffffffffffffffffffffffffffff169060200190929190803573ffffffffffffffffffffffffffffffffffffffff169060200190929190505050611e76565b6040518082815260200191505060405180910390f35b3480156109cd57600080fd5b50610a28600480360381019080803590602001908201803590602001908080601f0160208091040260200160405190810160405280939291908181526020018383808284378201915050505050509192919290505050611efd565b005b60048054600181600116156101000203166002900480601f016020809104026020016040519081016040528092919081815260200182805460018160011615610100020316600290048015610ac05780601f10610a9557610100808354040283529160200191610ac0565b820191906000526020600020905b815481529060010190602001808311610aa357829003601f168201915b505050505081565b600081600260003373ffffffffffffffffffffffffffffffffffffffff1673ffffffffffffffffffffffffffffffffffffffff16815260200190815260200160002060008573ffffffffffffffffffffffffffffffffffffffff1673ffffffffffffffffffffffffffffffffffffffff168152602001908152602001600020819055508273ffffffffffffffffffffffffffffffffffffffff163373ffffffffffffffffffffffffffffffffffffffff167f8c5be1e5ebec7d5bd14f71427d1e84f3dd0314c0f7b2291e5b200ac8c7c3b925846040518082815260200191505060405180910390a36001905092915050565b60098054600181600116156101000203166002900480601f016020809104026020016040519081016040528092919081815260200182805460018160011615610100020316600290048015610c505780601f10610c2557610100808354040283529160200191610c50565b820191906000526020600020905b815481529060010190602001808311610c3357829003601f168201915b505050505081565b6000600154905090565b60008060008573ffffffffffffffffffffffffffffffffffffffff1673ffffffffffffffffffffffffffffffffffffffff168152602001908152602001600020548211151515610cb157600080fd5b600260008573ffffffffffffffffffffffffffffffffffffffff1673ffffffffffffffffffffffffffffffffffffffff16815260200190815260200160002060003373ffffffffffffffffffffffffffffffffffffffff1673ffffffffffffffffffffffffffffffffffffffff168152602001908152602001600020548211151515610d3c57600080fd5b600073ffffffffffffffffffffffffffffffffffffffff168373ffffffffffffffffffffffffffffffffffffffff1614151515610d7857600080fd5b610dc9826000808773ffffffffffffffffffffffffffffffffffffffff1673ffffffffffffffffffffffffffffffffffffffff1681526020019081526020016000205461213090919063ffffffff16565b6000808673ffffffffffffffffffffffffffffffffffffffff1673ffffffffffffffffffffffffffffffffffffffff16815260200190815260200160002081905550610e5c826000808673ffffffffffffffffffffffffffffffffffffffff1673ffffffffffffffffffffffffffffffffffffffff1681526020019081526020016000205461214990919063ffffffff16565b6000808573ffffffffffffffffffffffffffffffffffffffff1673ffffffffffffffffffffffffffffffffffffffff16815260200190815260200160002081905550610f2d82600260008773ffffffffffffffffffffffffffffffffffffffff1673ffffffffffffffffffffffffffffffffffffffff16815260200190815260200160002060003373ffffffffffffffffffffffffffffffffffffffff1673ffffffffffffffffffffffffffffffffffffffff1681526020019081526020016000205461213090919063ffffffff16565b600260008673ffffffffffffffffffffffffffffffffffffffff1673ffffffffffffffffffffffffffffffffffffffff16815260200190815260200160002060003373ffffffffffffffffffffffffffffffffffffffff1673ffffffffffffffffffffffffffffffffffffffff168152602001908152602001600020819055508273ffffffffffffffffffffffffffffffffffffffff168473ffffffffffffffffffffffffffffffffffffffff167fddf252ad1be2c89b69c2b068fc378daa952ba7f163c4a11628f55a4df523b3ef846040518082815260200191505060405180910390a3600190509392505050565b60078054600181600116156101000203166002900480601f0160208091040260200160405190810160405280929190818152602001828054600181600116156101000203166002900480156110b35780601f10611088576101008083540402835291602001916110b3565b820191906000526020600020905b81548152906001019060200180831161109657829003601f168201915b505050505081565b600b60059054906101000a900460ff1681565b6000816000803373ffffffffffffffffffffffffffffffffffffffff1673ffffffffffffffffffffffffffffffffffffffff168152602001908152602001600020541015151561111d57600080fd5b61112682611c40565b905061113d8260015461213090919063ffffffff16565b600181905550611194826000803373ffffffffffffffffffffffffffffffffffffffff1673ffffffffffffffffffffffffffffffffffffffff1681526020019081526020016000205461213090919063ffffffff16565b6000803373ffffffffffffffffffffffffffffffffffffffff1673ffffffffffffffffffffffffffffffffffffffff168152602001908152602001600020819055506111eb8160035461213090919063ffffffff16565b6003819055503373ffffffffffffffffffffffffffffffffffffffff166108fc829081150290604051600060405180830381858888f19350505050158015611237573d6000803e3d6000fd5b507fcec1bae6e024d929f2929f3478ce70f55f9c636c8ef7b5073a61d7c3a432451b8282604051808381526020018281526020019250505060405180910390a15050565b60088054600181600116156101000203166002900480601f0160208091040260200160405190810160405280929190818152602001828054600181600116156101000203166002900480156113115780601f106112e657610100808354040283529160200191611311565b820191906000526020600020905b8154815290600101906020018083116112f457829003601f168201915b505050505081565b600b60009054906101000a900460ff1681565b61133581611849565b806000803373ffffffffffffffffffffffffffffffffffffffff1673ffffffffffffffffffffffffffffffffffffffff1681526020019081526020016000206000828254039250508190555080600080600660009054906101000a900473ffffffffffffffffffffffffffffffffffffffff1673ffffffffffffffffffffffffffffffffffffffff1673ffffffffffffffffffffffffffffffffffffffff168152602001908152602001600020600082825401925050819055507f70c4d277c3fbf37fdb46f1a14b734ec8107dd0dd3dd6f2781d56f712ab39d253826040518080602001828103825283818151815260200191508051906020019080838360005b83811015611451578082015181840152602081019050611436565b50505050905090810190601f16801561147e5780820380516001836020036101000a031916815260200191505b509250505060405180910390a15050565b600080600260003373ffffffffffffffffffffffffffffffffffffffff1673ffffffffffffffffffffffffffffffffffffffff16815260200190815260200160002060008573ffffffffffffffffffffffffffffffffffffffff1673ffffffffffffffffffffffffffffffffffffffff16815260200190815260200160002054905080831015156115a1576000600260003373ffffffffffffffffffffffffffffffffffffffff1673ffffffffffffffffffffffffffffffffffffffff16815260200190815260200160002060008673ffffffffffffffffffffffffffffffffffffffff1673ffffffffffffffffffffffffffffffffffffffff16815260200190815260200160002081905550611635565b6115b4838261213090919063ffffffff16565b600260003373ffffffffffffffffffffffffffffffffffffffff1673ffffffffffffffffffffffffffffffffffffffff16815260200190815260200160002060008673ffffffffffffffffffffffffffffffffffffffff1673ffffffffffffffffffffffffffffffffffffffff168152602001908152602001600020819055505b8373ffffffffffffffffffffffffffffffffffffffff163373ffffffffffffffffffffffffffffffffffffffff167f8c5be1e5ebec7d5bd14f71427d1e84f3dd0314c0f7b2291e5b200ac8c7c3b925600260003373ffffffffffffffffffffffffffffffffffffffff1673ffffffffffffffffffffffffffffffffffffffff16815260200190815260200160002060008873ffffffffffffffffffffffffffffffffffffffff1673ffffffffffffffffffffffffffffffffffffffff168152602001908152602001600020546040518082815260200191505060405180910390a3600191505092915050565b60008060008373ffffffffffffffffffffffffffffffffffffffff1673ffffffffffffffffffffffffffffffffffffffff168152602001908152602001600020549050919050565b600660009054906101000a900473ffffffffffffffffffffffffffffffffffffffff1681565b600b60019054906101000a900463ffffffff1681565b60058054600181600116156101000203166002900480601f01602080910402602001604051908101604052809291908181526020018280546001816001161561010002031660029004801561183b5780601f106118105761010080835404028352916020019161183b565b820191906000526020600020905b81548152906001019060200180831161181e57829003601f168201915b505050505081565b60035481565b600061185482611be3565b905080341015151561186557600080fd5b61187a8260015461214990919063ffffffff16565b6001819055506118d1826000803373ffffffffffffffffffffffffffffffffffffffff1673ffffffffffffffffffffffffffffffffffffffff1681526020019081526020016000205461214990919063ffffffff16565b6000803373ffffffffffffffffffffffffffffffffffffffff1673ffffffffffffffffffffffffffffffffffffffff168152602001908152602001600020819055506119288160035461214990919063ffffffff16565b60038190555080341115611980573373ffffffffffffffffffffffffffffffffffffffff166108fc8234039081150290604051600060405180830381858888f1935050505015801561197e573d6000803e3d6000fd5b505b7f8a9dcf4e150b1153011b29fec302d5be0c13e84fa8f56ab78587f778a32a90dd8282604051808381526020018281526020019250505060405180910390a15050565b60008060003373ffffffffffffffffffffffffffffffffffffffff1673ffffffffffffffffffffffffffffffffffffffff168152602001908152602001600020548211151515611a1257600080fd5b600073ffffffffffffffffffffffffffffffffffffffff168373ffffffffffffffffffffffffffffffffffffffff1614151515611a4e57600080fd5b611a9f826000803373ffffffffffffffffffffffffffffffffffffffff1673ffffffffffffffffffffffffffffffffffffffff1681526020019081526020016000205461213090919063ffffffff16565b6000803373ffffffffffffffffffffffffffffffffffffffff1673ffffffffffffffffffffffffffffffffffffffff16815260200190815260200160002081905550611b32826000808673ffffffffffffffffffffffffffffffffffffffff1673ffffffffffffffffffffffffffffffffffffffff1681526020019081526020016000205461214990919063ffffffff16565b6000808573ffffffffffffffffffffffffffffffffffffffff1673ffffffffffffffffffffffffffffffffffffffff168152602001908152602001600020819055508273ffffffffffffffffffffffffffffffffffffffff163373ffffffffffffffffffffffffffffffffffffffff167fddf252ad1be2c89b69c2b068fc378daa952ba7f163c4a11628f55a4df523b3ef846040518082815260200191505060405180910390a36001905092915050565b6000611c16600354611c08611c038560015461214990919063ffffffff16565b612165565b61213090919063ffffffff16565b9050919050565b600a81815481101515611c2c57fe5b906000526020600020016000915090505481565b6000611c73611c62611c5d8460015461213090919063ffffffff16565b612165565b60035461213090919063ffffffff16565b9050919050565b6000611d0b82600260003373ffffffffffffffffffffffffffffffffffffffff1673ffffffffffffffffffffffffffffffffffffffff16815260200190815260200160002060008673ffffffffffffffffffffffffffffffffffffffff1673ffffffffffffffffffffffffffffffffffffffff1681526020019081526020016000205461214990919063ffffffff16565b600260003373ffffffffffffffffffffffffffffffffffffffff1673ffffffffffffffffffffffffffffffffffffffff16815260200190815260200160002060008573ffffffffffffffffffffffffffffffffffffffff1673ffffffffffffffffffffffffffffffffffffffff168152602001908152602001600020819055508273ffffffffffffffffffffffffffffffffffffffff163373ffffffffffffffffffffffffffffffffffffffff167f8c5be1e5ebec7d5bd14f71427d1e84f3dd0314c0f7b2291e5b200ac8c7c3b925600260003373ffffffffffffffffffffffffffffffffffffffff1673ffffffffffffffffffffffffffffffffffffffff16815260200190815260200160002060008773ffffffffffffffffffffffffffffffffffffffff1673ffffffffffffffffffffffffffffffffffffffff168152602001908152602001600020546040518082815260200191505060405180910390a36001905092915050565b6000600260008473ffffffffffffffffffffffffffffffffffffffff1673ffffffffffffffffffffffffffffffffffffffff16815260200190815260200160002060008373ffffffffffffffffffffffffffffffffffffffff1673ffffffffffffffffffffffffffffffffffffffff16815260200190815260200160002054905092915050565b600b60059054906101000a900460ff1660ff16600a0a600a6000815481101515611f2357fe5b9060005260206000200154026000803373ffffffffffffffffffffffffffffffffffffffff1673ffffffffffffffffffffffffffffffffffffffff1681526020019081526020016000205410151515611f7b57600080fd5b600b60059054906101000a900460ff1660ff16600a6000815481101515611f9e57fe5b9060005260206000200154026000803373ffffffffffffffffffffffffffffffffffffffff1673ffffffffffffffffffffffffffffffffffffffff16815260200190815260200160002060008282540392505081905550600b60059054906101000a900460ff1660ff16600a600081548110151561201857fe5b906000526020600020015402600080600660009054906101000a900473ffffffffffffffffffffffffffffffffffffffff1673ffffffffffffffffffffffffffffffffffffffff1673ffffffffffffffffffffffffffffffffffffffff168152602001908152602001600020600082825401925050819055507f70c4d277c3fbf37fdb46f1a14b734ec8107dd0dd3dd6f2781d56f712ab39d253816040518080602001828103825283818151815260200191508051906020019080838360005b838110156120f35780820151818401526020810190506120d8565b50505050905090810190601f1680156121205780820380516001836020036101000a031916815260200191505b509250505060405180910390a150565b600082821115151561213e57fe5b818303905092915050565b6000818301905082811015151561215c57fe5b80905092915050565b6000806001600b60009054906101000a900460ff160160ff1690506121fa600b60009054906101000a900460ff1660ff16600b60059054906101000a900460ff1660ff1602600a0a6121ec600b60019054906101000a900463ffffffff1663ffffffff166121de8586890a61220290919063ffffffff16565b61220290919063ffffffff16565b61220290919063ffffffff16565b915050919050565b6000818381151561220f57fe5b049050929150505600a165627a7a72305820d046556c5e14b9c9008cc332d1bccbca9e65089aaedf913bcb031ae889281c490029a165627a7a72305820e0281a06c940dd49372ade0a09983142be587324a496519adc2811117dbdeb3f0029",
  "source": "pragma solidity ^0.4.21;\n\nimport \"./Factory.sol\";\nimport \"./EthPolynomialCurvedToken.sol\";\n\n/// @title MyToken Factory - Allows creation of custom token.\n/// @author Nicolas frega - <nicolas.frega@srax.com>\n\ncontract MyTokenFactory is Factory {\n\n    /*\n     * Public functions\n     */\n    /// @dev Allows verified creation of custom token.\n    /// @param _name String for token name.\n    /// @param _symbol String for token symbol.\n    /// @return Returns token address.\n    function create(string _name, string _symbol, string _action1, string _action2, string _action3, uint[] _prices)\n        public\n        returns (address tokenAddress)\n    {\n        tokenAddress = new EthPolynomialCurvedToken(_name, _symbol, msg.sender, _action1, _action2, _action3, _prices);\n        register(tokenAddress);\n    }\n}\n",
  "sourcePath": "/home/volt/workspaces/convergentcx/Arena/contracts/MyTokenFactory.sol",
  "compiler": {
    "name": "solc",
    "version": "0.4.25+commit.59dbf8f1.Emscripten.clang"
  },
  "schemaVersion": "3.0.0-beta.1",
  "updatedAt": "2018-11-22T06:29:07.009Z",
  "devdoc": {
    "author": "Nicolas frega - <nicolas.frega@srax.com>",
    "methods": {
      "create(string,string,string,string,string,uint256[])": {
        "details": "Allows verified creation of custom token.",
        "params": {
          "_name": "String for token name.",
          "_symbol": "String for token symbol."
        },
        "return": "Returns token address."
      }
    },
    "title": "MyToken Factory - Allows creation of custom token."
  },
  "userdoc": {
    "methods": {}
  }
}