{
  "contractName": "PersonalEconomyFactory",
  "abi": [
    {
      "constant": true,
      "inputs": [
        {
          "name": "",
          "type": "address"
        }
      ],
      "name": "isInstantiation",
      "outputs": [
        {
          "name": "",
          "type": "bool"
        }
      ],
      "payable": false,
      "stateMutability": "view",
      "type": "function",
      "signature": "0x2f4f3316"
    },
    {
      "constant": true,
      "inputs": [
        {
          "name": "",
          "type": "uint256"
        }
      ],
      "name": "instantiations",
      "outputs": [
        {
          "name": "",
          "type": "address"
        }
      ],
      "payable": false,
      "stateMutability": "view",
      "type": "function",
      "signature": "0xb7de9dae"
    },
    {
      "constant": true,
      "inputs": [],
      "name": "getInstantiations",
      "outputs": [
        {
          "name": "",
          "type": "address[]"
        }
      ],
      "payable": false,
      "stateMutability": "view",
      "type": "function",
      "signature": "0xc1ad191a"
    },
    {
      "anonymous": false,
      "inputs": [
        {
          "indexed": true,
          "name": "token_address",
          "type": "address"
        },
        {
          "indexed": true,
          "name": "owner_address",
          "type": "address"
        }
      ],
      "name": "Created",
      "type": "event",
      "signature": "0x587ece4cd19692c5be1a4184503d607d45542d2aca0698c0068f52e09ccb541c"
    },
    {
      "anonymous": false,
      "inputs": [
        {
          "indexed": false,
          "name": "sender",
          "type": "address"
        },
        {
          "indexed": false,
          "name": "instantiation",
          "type": "address"
        }
      ],
      "name": "ContractInstantiation",
      "type": "event",
      "signature": "0x4fb057ad4a26ed17a57957fa69c306f11987596069b89521c511fc9a894e6161"
    },
    {
      "constant": false,
      "inputs": [
        {
          "name": "_name",
          "type": "string"
        },
        {
          "name": "_symbol",
          "type": "string"
        },
        {
          "name": "_action1",
          "type": "string"
        },
        {
          "name": "_action2",
          "type": "string"
        },
        {
          "name": "_action3",
          "type": "string"
        },
        {
          "name": "_prices",
          "type": "uint256[]"
        }
      ],
      "name": "create",
      "outputs": [
        {
          "name": "tokenAddress",
          "type": "address"
        }
      ],
      "payable": false,
      "stateMutability": "nonpayable",
      "type": "function",
      "signature": "0x157607f7"
    }
  ],
  "bytecode": "0x608060405234801561001057600080fd5b50612dd9806100206000396000f300608060405260043610610062576000357c0100000000000000000000000000000000000000000000000000000000900463ffffffff168063157607f7146100675780632f4f33161461026b578063b7de9dae146102c6578063c1ad191a14610333575b600080fd5b34801561007357600080fd5b50610229600480360381019080803590602001908201803590602001908080601f0160208091040260200160405190810160405280939291908181526020018383808284378201915050505050509192919290803590602001908201803590602001908080601f0160208091040260200160405190810160405280939291908181526020018383808284378201915050505050509192919290803590602001908201803590602001908080601f0160208091040260200160405190810160405280939291908181526020018383808284378201915050505050509192919290803590602001908201803590602001908080601f0160208091040260200160405190810160405280939291908181526020018383808284378201915050505050509192919290803590602001908201803590602001908080601f01602080910402602001604051908101604052809392919081815260200183838082843782019150505050505091929192908035906020019082018035906020019080806020026020016040519081016040528093929190818152602001838360200280828437820191505050505050919291929050505061039f565b604051808273ffffffffffffffffffffffffffffffffffffffff1673ffffffffffffffffffffffffffffffffffffffff16815260200191505060405180910390f35b34801561027757600080fd5b506102ac600480360381019080803573ffffffffffffffffffffffffffffffffffffffff1690602001909291905050506106a2565b604051808215151515815260200191505060405180910390f35b3480156102d257600080fd5b506102f1600480360381019080803590602001909291905050506106c2565b604051808273ffffffffffffffffffffffffffffffffffffffff1673ffffffffffffffffffffffffffffffffffffffff16815260200191505060405180910390f35b34801561033f57600080fd5b50610348610700565b6040518080602001828103825283818151815260200191508051906020019060200280838360005b8381101561038b578082015181840152602081019050610370565b505050509050019250505060405180910390f35b60008686868686866103af6108e5565b8080602001806020018060200180602001806020018060200187810387528d818151815260200191508051906020019080838360005b838110156104005780820151818401526020810190506103e5565b50505050905090810190601f16801561042d5780820380516001836020036101000a031916815260200191505b5087810386528c818151815260200191508051906020019080838360005b8381101561046657808201518184015260208101905061044b565b50505050905090810190601f1680156104935780820380516001836020036101000a031916815260200191505b5087810385528b818151815260200191508051906020019080838360005b838110156104cc5780820151818401526020810190506104b1565b50505050905090810190601f1680156104f95780820380516001836020036101000a031916815260200191505b5087810384528a818151815260200191508051906020019080838360005b83811015610532578082015181840152602081019050610517565b50505050905090810190601f16801561055f5780820380516001836020036101000a031916815260200191505b50878103835289818151815260200191508051906020019080838360005b8381101561059857808201518184015260208101905061057d565b50505050905090810190601f1680156105c55780820380516001836020036101000a031916815260200191505b50878103825288818151815260200191508051906020019060200280838360005b838110156106015780820151818401526020810190506105e6565b505050509050019c50505050505050505050505050604051809103906000f080158015610632573d6000803e3d6000fd5b50905061063e8161078e565b3373ffffffffffffffffffffffffffffffffffffffff168173ffffffffffffffffffffffffffffffffffffffff167f587ece4cd19692c5be1a4184503d607d45542d2aca0698c0068f52e09ccb541c60405160405180910390a39695505050505050565b60006020528060005260406000206000915054906101000a900460ff1681565b6001818154811015156106d157fe5b906000526020600020016000915054906101000a900473ffffffffffffffffffffffffffffffffffffffff1681565b6060600180548060200260200160405190810160405280929190818152602001828054801561078457602002820191906000526020600020905b8160009054906101000a900473ffffffffffffffffffffffffffffffffffffffff1673ffffffffffffffffffffffffffffffffffffffff168152602001906001019080831161073a575b5050505050905090565b60016000808373ffffffffffffffffffffffffffffffffffffffff1673ffffffffffffffffffffffffffffffffffffffff16815260200190815260200160002060006101000a81548160ff02191690831515021790555060018190806001815401808255809150509060018203906000526020600020016000909192909190916101000a81548173ffffffffffffffffffffffffffffffffffffffff021916908373ffffffffffffffffffffffffffffffffffffffff160217905550507f4fb057ad4a26ed17a57957fa69c306f11987596069b89521c511fc9a894e61613382604051808373ffffffffffffffffffffffffffffffffffffffff1673ffffffffffffffffffffffffffffffffffffffff1681526020018273ffffffffffffffffffffffffffffffffffffffff1673ffffffffffffffffffffffffffffffffffffffff1681526020019250505060405180910390a150565b6040516124b8806108f683390190560060806040523480156200001157600080fd5b50604051620024b8380380620024b88339810180604052810190808051820192919060200180518201929190602001805182019291906020018051820192919060200180518201929190602001805182019291905050508585601260016103e884848482828282600090805190602001906200008f9291906200014d565b508160019080519060200190620000a89291906200014d565b5080600260006101000a81548160ff021916908360ff1602179055505050505050508160078190555080600881905550505050505083600c9080519060200190620000f59291906200014d565b5082600d90805190602001906200010e9291906200014d565b5081600e9080519060200190620001279291906200014d565b5080600f908051906020019062000140929190620001d4565b505050505050506200024e565b828054600181600116156101000203166002900490600052602060002090601f016020900481019282601f106200019057805160ff1916838001178555620001c1565b82800160010185558215620001c1579182015b82811115620001c0578251825591602001919060010190620001a3565b5b509050620001d0919062000226565b5090565b82805482825590600052602060002090810192821562000213579160200282015b8281111562000212578251825591602001919060010190620001f5565b5b50905062000222919062000226565b5090565b6200024b91905b80821115620002475760008160009055506001016200022d565b5090565b90565b61225a806200025e6000396000f300608060405260043610610149576000357c0100000000000000000000000000000000000000000000000000000000900463ffffffff16806306fdde031461014e578063095ea7b3146101de5780631806bd0a1461024357806318160ddd146102d357806323b872dd146102fe5780632f8be60214610383578063313ce56714610413578063395093511461044457806342966c68146104a95780634cb2a2d3146104d657806352f6ee5814610566578063621d8531146105915780636400be1d146105f757806370a08231146106225780638da5cb5b1461067957806395d89b41146106d057806396365d4414610760578063a0712d681461078b578063a457c2d7146107ab578063a9059cbb14610810578063b9d3674314610875578063bc31c1c1146108b6578063c544682b146108f7578063dd62ed3e14610938578063e690b0e2146109af575b600080fd5b34801561015a57600080fd5b50610163610a18565b6040518080602001828103825283818151815260200191508051906020019080838360005b838110156101a3578082015181840152602081019050610188565b50505050905090810190601f1680156101d05780820380516001836020036101000a031916815260200191505b509250505060405180910390f35b3480156101ea57600080fd5b50610229600480360381019080803573ffffffffffffffffffffffffffffffffffffffff16906020019092919080359060200190929190505050610ab6565b604051808215151515815260200191505060405180910390f35b34801561024f57600080fd5b50610258610be3565b6040518080602001828103825283818151815260200191508051906020019080838360005b8381101561029857808201518184015260208101905061027d565b50505050905090810190601f1680156102c55780820380516001836020036101000a031916815260200191505b509250505060405180910390f35b3480156102df57600080fd5b506102e8610c81565b6040518082815260200191505060405180910390f35b34801561030a57600080fd5b50610369600480360381019080803573ffffffffffffffffffffffffffffffffffffffff169060200190929190803573ffffffffffffffffffffffffffffffffffffffff16906020019092919080359060200190929190505050610c8b565b604051808215151515815260200191505060405180910390f35b34801561038f57600080fd5b50610398610e3d565b6040518080602001828103825283818151815260200191508051906020019080838360005b838110156103d85780820151818401526020810190506103bd565b50505050905090810190601f1680156104055780820380516001836020036101000a031916815260200191505b509250505060405180910390f35b34801561041f57600080fd5b50610428610edb565b604051808260ff1660ff16815260200191505060405180910390f35b34801561045057600080fd5b5061048f600480360381019080803573ffffffffffffffffffffffffffffffffffffffff16906020019092919080359060200190929190505050610ef2565b604051808215151515815260200191505060405180910390f35b3480156104b557600080fd5b506104d460048036038101908080359060200190929190505050611129565b005b3480156104e257600080fd5b506104eb611302565b6040518080602001828103825283818151815260200191508051906020019080838360005b8381101561052b578082015181840152602081019050610510565b50505050905090810190601f1680156105585780820380516001836020036101000a031916815260200191505b509250505060405180910390f35b34801561057257600080fd5b5061057b6113a0565b6040518082815260200191505060405180910390f35b6105f5600480360381019080803590602001908201803590602001908080601f0160208091040260200160405190810160405280939291908181526020018383808284378201915050505050509192919290803590602001909291905050506113a6565b005b34801561060357600080fd5b5061060c611484565b6040518082815260200191505060405180910390f35b34801561062e57600080fd5b50610663600480360381019080803573ffffffffffffffffffffffffffffffffffffffff16906020019092919050505061148a565b6040518082815260200191505060405180910390f35b34801561068557600080fd5b5061068e6114d3565b604051808273ffffffffffffffffffffffffffffffffffffffff1673ffffffffffffffffffffffffffffffffffffffff16815260200191505060405180910390f35b3480156106dc57600080fd5b506106e56114f9565b6040518080602001828103825283818151815260200191508051906020019080838360005b8381101561072557808201518184015260208101905061070a565b50505050905090810190601f1680156107525780820380516001836020036101000a031916815260200191505b509250505060405180910390f35b34801561076c57600080fd5b50610775611597565b6040518082815260200191505060405180910390f35b6107a96004803603810190808035906020019092919050505061159d565b005b3480156107b757600080fd5b506107f6600480360381019080803573ffffffffffffffffffffffffffffffffffffffff169060200190929190803590602001909291905050506117af565b604051808215151515815260200191505060405180910390f35b34801561081c57600080fd5b5061085b600480360381019080803573ffffffffffffffffffffffffffffffffffffffff169060200190929190803590602001909291905050506119e6565b604051808215151515815260200191505060405180910390f35b34801561088157600080fd5b506108a0600480360381019080803590602001909291905050506119fd565b6040518082815260200191505060405180910390f35b3480156108c257600080fd5b506108e160048036038101908080359060200190929190505050611a3c565b6040518082815260200191505060405180910390f35b34801561090357600080fd5b5061092260048036038101908080359060200190929190505050611a5f565b6040518082815260200191505060405180910390f35b34801561094457600080fd5b50610999600480360381019080803573ffffffffffffffffffffffffffffffffffffffff169060200190929190803573ffffffffffffffffffffffffffffffffffffffff169060200190929190505050611a9e565b6040518082815260200191505060405180910390f35b3480156109bb57600080fd5b50610a16600480360381019080803590602001908201803590602001908080601f0160208091040260200160405190810160405280939291908181526020018383808284378201915050505050509192919290505050611b25565b005b60098054600181600116156101000203166002900480601f016020809104026020016040519081016040528092919081815260200182805460018160011615610100020316600290048015610aae5780601f10610a8357610100808354040283529160200191610aae565b820191906000526020600020905b815481529060010190602001808311610a9157829003601f168201915b505050505081565b60008073ffffffffffffffffffffffffffffffffffffffff168373ffffffffffffffffffffffffffffffffffffffff1614151515610af357600080fd5b81600460003373ffffffffffffffffffffffffffffffffffffffff1673ffffffffffffffffffffffffffffffffffffffff16815260200190815260200160002060008573ffffffffffffffffffffffffffffffffffffffff1673ffffffffffffffffffffffffffffffffffffffff168152602001908152602001600020819055508273ffffffffffffffffffffffffffffffffffffffff163373ffffffffffffffffffffffffffffffffffffffff167f8c5be1e5ebec7d5bd14f71427d1e84f3dd0314c0f7b2291e5b200ac8c7c3b925846040518082815260200191505060405180910390a36001905092915050565b600e8054600181600116156101000203166002900480601f016020809104026020016040519081016040528092919081815260200182805460018160011615610100020316600290048015610c795780601f10610c4e57610100808354040283529160200191610c79565b820191906000526020600020905b815481529060010190602001808311610c5c57829003601f168201915b505050505081565b6000600554905090565b6000600460008573ffffffffffffffffffffffffffffffffffffffff1673ffffffffffffffffffffffffffffffffffffffff16815260200190815260200160002060003373ffffffffffffffffffffffffffffffffffffffff1673ffffffffffffffffffffffffffffffffffffffff168152602001908152602001600020548211151515610d1857600080fd5b610da782600460008773ffffffffffffffffffffffffffffffffffffffff1673ffffffffffffffffffffffffffffffffffffffff16815260200190815260200160002060003373ffffffffffffffffffffffffffffffffffffffff1673ffffffffffffffffffffffffffffffffffffffff16815260200190815260200160002054611c5890919063ffffffff16565b600460008673ffffffffffffffffffffffffffffffffffffffff1673ffffffffffffffffffffffffffffffffffffffff16815260200190815260200160002060003373ffffffffffffffffffffffffffffffffffffffff1673ffffffffffffffffffffffffffffffffffffffff16815260200190815260200160002081905550610e32848484611c79565b600190509392505050565b600c8054600181600116156101000203166002900480601f016020809104026020016040519081016040528092919081815260200182805460018160011615610100020316600290048015610ed35780601f10610ea857610100808354040283529160200191610ed3565b820191906000526020600020905b815481529060010190602001808311610eb657829003601f168201915b505050505081565b6000600260009054906101000a900460ff16905090565b60008073ffffffffffffffffffffffffffffffffffffffff168373ffffffffffffffffffffffffffffffffffffffff1614151515610f2f57600080fd5b610fbe82600460003373ffffffffffffffffffffffffffffffffffffffff1673ffffffffffffffffffffffffffffffffffffffff16815260200190815260200160002060008673ffffffffffffffffffffffffffffffffffffffff1673ffffffffffffffffffffffffffffffffffffffff16815260200190815260200160002054611e9790919063ffffffff16565b600460003373ffffffffffffffffffffffffffffffffffffffff1673ffffffffffffffffffffffffffffffffffffffff16815260200190815260200160002060008573ffffffffffffffffffffffffffffffffffffffff1673ffffffffffffffffffffffffffffffffffffffff168152602001908152602001600020819055508273ffffffffffffffffffffffffffffffffffffffff163373ffffffffffffffffffffffffffffffffffffffff167f8c5be1e5ebec7d5bd14f71427d1e84f3dd0314c0f7b2291e5b200ac8c7c3b925600460003373ffffffffffffffffffffffffffffffffffffffff1673ffffffffffffffffffffffffffffffffffffffff16815260200190815260200160002060008773ffffffffffffffffffffffffffffffffffffffff1673ffffffffffffffffffffffffffffffffffffffff168152602001908152602001600020546040518082815260200191505060405180910390a36001905092915050565b600080821115156111c8576040517f08c379a00000000000000000000000000000000000000000000000000000000081526004018080602001828103825260268152602001807f4d757374206275726e20616e20616d6f756e742067726561746572207468616e81526020017f207a65726f2e000000000000000000000000000000000000000000000000000081525060400191505060405180910390fd5b816111d23361148a565b10151515611248576040517f08c379a00000000000000000000000000000000000000000000000000000000081526004018080602001828103825260208152602001807f4d757374206861766520656e6f75676820746f6b656e7320746f206275726e2e81525060200191505060405180910390fd5b61125182611a5f565b905061125d3383611eb8565b61127281600654611c5890919063ffffffff16565b6006819055503373ffffffffffffffffffffffffffffffffffffffff166108fc829081150290604051600060405180830381858888f193505050501580156112be573d6000803e3d6000fd5b507fcec1bae6e024d929f2929f3478ce70f55f9c636c8ef7b5073a61d7c3a432451b8282604051808381526020018281526020019250505060405180910390a15050565b600d8054600181600116156101000203166002900480601f0160208091040260200160405190810160405280929190818152602001828054600181600116156101000203166002900480156113985780601f1061136d57610100808354040283529160200191611398565b820191906000526020600020905b81548152906001019060200180831161137b57829003601f168201915b505050505081565b60075481565b6113af8161159d565b6113db600b60009054906101000a900473ffffffffffffffffffffffffffffffffffffffff16826119e6565b507f9a7026fd627cf66766172806ae9889f066b6ad6702cd9973b6078ed3da60cb9582426040518080602001838152602001828103825284818151815260200191508051906020019080838360005b8381101561144557808201518184015260208101905061142a565b50505050905090810190601f1680156114725780820380516001836020036101000a031916815260200191505b50935050505060405180910390a15050565b60085481565b6000600360008373ffffffffffffffffffffffffffffffffffffffff1673ffffffffffffffffffffffffffffffffffffffff168152602001908152602001600020549050919050565b600b60009054906101000a900473ffffffffffffffffffffffffffffffffffffffff1681565b600a8054600181600116156101000203166002900480601f01602080910402602001604051908101604052809291908181526020018280546001816001161561010002031660029004801561158f5780601f106115645761010080835404028352916020019161158f565b820191906000526020600020905b81548152906001019060200180831161157257829003601f168201915b505050505081565b60065481565b6000808211151561163c576040517f08c379a000000000000000000000000000000000000000000000000000000000815260040180806020018281038252602a8152602001807f4d75737420707572636861736520616e20616d6f756e7420677265617465722081526020017f7468616e207a65726f2e0000000000000000000000000000000000000000000081525060400191505060405180910390fd5b611645826119fd565b90508034101515156116e5576040517f08c379a00000000000000000000000000000000000000000000000000000000081526004018080602001828103825260278152602001807f4d7573742073656e642072657175697369746520616d6f756e7420746f20707581526020017f7263686173652e0000000000000000000000000000000000000000000000000081525060400191505060405180910390fd5b6116ef3383612046565b61170481600654611e9790919063ffffffff16565b6006819055508034111561176c573373ffffffffffffffffffffffffffffffffffffffff166108fc61173f8334611c5890919063ffffffff16565b9081150290604051600060405180830381858888f1935050505015801561176a573d6000803e3d6000fd5b505b7f8a9dcf4e150b1153011b29fec302d5be0c13e84fa8f56ab78587f778a32a90dd8282604051808381526020018281526020019250505060405180910390a15050565b60008073ffffffffffffffffffffffffffffffffffffffff168373ffffffffffffffffffffffffffffffffffffffff16141515156117ec57600080fd5b61187b82600460003373ffffffffffffffffffffffffffffffffffffffff1673ffffffffffffffffffffffffffffffffffffffff16815260200190815260200160002060008673ffffffffffffffffffffffffffffffffffffffff1673ffffffffffffffffffffffffffffffffffffffff16815260200190815260200160002054611c5890919063ffffffff16565b600460003373ffffffffffffffffffffffffffffffffffffffff1673ffffffffffffffffffffffffffffffffffffffff16815260200190815260200160002060008573ffffffffffffffffffffffffffffffffffffffff1673ffffffffffffffffffffffffffffffffffffffff168152602001908152602001600020819055508273ffffffffffffffffffffffffffffffffffffffff163373ffffffffffffffffffffffffffffffffffffffff167f8c5be1e5ebec7d5bd14f71427d1e84f3dd0314c0f7b2291e5b200ac8c7c3b925600460003373ffffffffffffffffffffffffffffffffffffffff1673ffffffffffffffffffffffffffffffffffffffff16815260200190815260200160002060008773ffffffffffffffffffffffffffffffffffffffff1673ffffffffffffffffffffffffffffffffffffffff168152602001908152602001600020546040518082815260200191505060405180910390a36001905092915050565b60006119f3338484611c79565b6001905092915050565b6000611a35600654611a27611a2285611a14610c81565b611e9790919063ffffffff16565b612186565b611c5890919063ffffffff16565b9050919050565b600f81815481101515611a4b57fe5b906000526020600020016000915090505481565b6000611a97611a86611a8184611a73610c81565b611c5890919063ffffffff16565b612186565b600654611c5890919063ffffffff16565b9050919050565b6000600460008473ffffffffffffffffffffffffffffffffffffffff1673ffffffffffffffffffffffffffffffffffffffff16815260200190815260200160002060008373ffffffffffffffffffffffffffffffffffffffff1673ffffffffffffffffffffffffffffffffffffffff16815260200190815260200160002054905092915050565b670de0b6b3a7640000600f6000815481101515611b3e57fe5b906000526020600020015402611b533361148a565b10151515611b6057600080fd5b611bb0600b60009054906101000a900473ffffffffffffffffffffffffffffffffffffffff16670de0b6b3a7640000600f6000815481101515611b9f57fe5b9060005260206000200154026119e6565b507f9a7026fd627cf66766172806ae9889f066b6ad6702cd9973b6078ed3da60cb9581426040518080602001838152602001828103825284818151815260200191508051906020019080838360005b83811015611c1a578082015181840152602081019050611bff565b50505050905090810190601f168015611c475780820380516001836020036101000a031916815260200191505b50935050505060405180910390a150565b600080838311151515611c6a57600080fd5b82840390508091505092915050565b600360008473ffffffffffffffffffffffffffffffffffffffff1673ffffffffffffffffffffffffffffffffffffffff168152602001908152602001600020548111151515611cc757600080fd5b600073ffffffffffffffffffffffffffffffffffffffff168273ffffffffffffffffffffffffffffffffffffffff1614151515611d0357600080fd5b611d5581600360008673ffffffffffffffffffffffffffffffffffffffff1673ffffffffffffffffffffffffffffffffffffffff16815260200190815260200160002054611c5890919063ffffffff16565b600360008573ffffffffffffffffffffffffffffffffffffffff1673ffffffffffffffffffffffffffffffffffffffff16815260200190815260200160002081905550611dea81600360008573ffffffffffffffffffffffffffffffffffffffff1673ffffffffffffffffffffffffffffffffffffffff16815260200190815260200160002054611e9790919063ffffffff16565b600360008473ffffffffffffffffffffffffffffffffffffffff1673ffffffffffffffffffffffffffffffffffffffff168152602001908152602001600020819055508173ffffffffffffffffffffffffffffffffffffffff168373ffffffffffffffffffffffffffffffffffffffff167fddf252ad1be2c89b69c2b068fc378daa952ba7f163c4a11628f55a4df523b3ef836040518082815260200191505060405180910390a3505050565b6000808284019050838110151515611eae57600080fd5b8091505092915050565b60008273ffffffffffffffffffffffffffffffffffffffff1614151515611ede57600080fd5b600360008373ffffffffffffffffffffffffffffffffffffffff1673ffffffffffffffffffffffffffffffffffffffff168152602001908152602001600020548111151515611f2c57600080fd5b611f4181600554611c5890919063ffffffff16565b600581905550611f9981600360008573ffffffffffffffffffffffffffffffffffffffff1673ffffffffffffffffffffffffffffffffffffffff16815260200190815260200160002054611c5890919063ffffffff16565b600360008473ffffffffffffffffffffffffffffffffffffffff1673ffffffffffffffffffffffffffffffffffffffff16815260200190815260200160002081905550600073ffffffffffffffffffffffffffffffffffffffff168273ffffffffffffffffffffffffffffffffffffffff167fddf252ad1be2c89b69c2b068fc378daa952ba7f163c4a11628f55a4df523b3ef836040518082815260200191505060405180910390a35050565b60008273ffffffffffffffffffffffffffffffffffffffff161415151561206c57600080fd5b61208181600554611e9790919063ffffffff16565b6005819055506120d981600360008573ffffffffffffffffffffffffffffffffffffffff1673ffffffffffffffffffffffffffffffffffffffff16815260200190815260200160002054611e9790919063ffffffff16565b600360008473ffffffffffffffffffffffffffffffffffffffff1673ffffffffffffffffffffffffffffffffffffffff168152602001908152602001600020819055508173ffffffffffffffffffffffffffffffffffffffff16600073ffffffffffffffffffffffffffffffffffffffff167fddf252ad1be2c89b69c2b068fc378daa952ba7f163c4a11628f55a4df523b3ef836040518082815260200191505060405180910390a35050565b60008060006121a16001600754611e9790919063ffffffff16565b91506012826121ae610edb565b60ff1602600a0a0390506121fb670de0b6b3a76400006121ed6008546121df86878a0a61220490919063ffffffff16565b61220490919063ffffffff16565b61220490919063ffffffff16565b92505050919050565b60008060008311151561221657600080fd5b828481151561222157fe5b04905080915050929150505600a165627a7a7230582011bc5d8c1290f0174c1139a95acd0d5c15d1aa79c626e5f27660e2dfde6a6f0d0029a165627a7a72305820df44d3eb764bae966944ed9dd05d10852b8413b6640869b7ccf72ee7fde9f1a30029",
  "source": "pragma solidity ^0.4.24;\n\nimport \"./Factory.sol\";\nimport \"./PersonalEconomy.sol\";\n\ncontract PersonalEconomyFactory is Factory {\n\n    event Created(address indexed token_address, address indexed owner_address);\n\n    /*\n     * Public functions\n     */\n    /// @dev Allows verified creation of custom token.\n    /// @param _name String for token name.\n    /// @param _symbol String for token symbol.\n    /// @return Returns token address.\n    function create(string _name, string _symbol, string _action1, string _action2, string _action3, uint[] _prices)\n        public\n        returns (address tokenAddress)\n    {\n        tokenAddress = new PersonalEconomy(\n            _name,\n            _symbol,\n            _action1,\n            _action2,\n            _action3,\n            _prices\n        \n        );\n        \n        register(tokenAddress);\n        emit Created(tokenAddress, msg.sender);\n    }\n}\n",
  "sourcePath": "/Users/achill/Projects/Convergent/Arena/contracts/PersonalEconomyFactory.sol",
  "compiler": {
    "name": "solc",
    "version": "0.4.25+commit.59dbf8f1.Emscripten.clang"
  },
  "schemaVersion": "3.0.0-beta.1",
  "updatedAt": "2018-11-23T12:11:09.013Z",
  "devdoc": {
    "methods": {
      "create(string,string,string,string,string,uint256[])": {
        "details": "Allows verified creation of custom token.",
        "params": {
          "_name": "String for token name.",
          "_symbol": "String for token symbol."
        },
        "return": "Returns token address."
      }
    }
  },
  "userdoc": {
    "methods": {}
  }
}