{
  "contractName": "PersonalEconomyFactory",
  "abi": [
    {
      "constant": true,
      "inputs": [
        {
          "name": "",
          "type": "address"
        }
      ],
      "name": "isInstantiation",
      "outputs": [
        {
          "name": "",
          "type": "bool"
        }
      ],
      "payable": false,
      "stateMutability": "view",
      "type": "function",
      "signature": "0x2f4f3316"
    },
    {
      "constant": true,
      "inputs": [
        {
          "name": "",
          "type": "uint256"
        }
      ],
      "name": "instantiations",
      "outputs": [
        {
          "name": "",
          "type": "address"
        }
      ],
      "payable": false,
      "stateMutability": "view",
      "type": "function",
      "signature": "0xb7de9dae"
    },
    {
      "constant": true,
      "inputs": [],
      "name": "getInstantiations",
      "outputs": [
        {
          "name": "",
          "type": "address[]"
        }
      ],
      "payable": false,
      "stateMutability": "view",
      "type": "function",
      "signature": "0xc1ad191a"
    },
    {
      "anonymous": false,
      "inputs": [
        {
          "indexed": false,
          "name": "token_address",
          "type": "address"
        },
        {
          "indexed": true,
          "name": "owner_address",
          "type": "address"
        },
        {
          "indexed": false,
          "name": "time",
          "type": "uint256"
        },
        {
          "indexed": false,
          "name": "name",
          "type": "string"
        }
      ],
      "name": "Created",
      "type": "event",
      "signature": "0xf238fcd2133237bc5ae0e1f42086a193f4fddae976468b0797a9260c8f292219"
    },
    {
      "anonymous": false,
      "inputs": [
        {
          "indexed": false,
          "name": "sender",
          "type": "address"
        },
        {
          "indexed": false,
          "name": "instantiation",
          "type": "address"
        }
      ],
      "name": "ContractInstantiation",
      "type": "event",
      "signature": "0x4fb057ad4a26ed17a57957fa69c306f11987596069b89521c511fc9a894e6161"
    },
    {
      "constant": false,
      "inputs": [
        {
          "name": "_mhash",
          "type": "bytes32"
        },
        {
          "name": "_name",
          "type": "string"
        },
        {
          "name": "_symbol",
          "type": "string"
        }
      ],
      "name": "create",
      "outputs": [
        {
          "name": "tokenAddress",
          "type": "address"
        }
      ],
      "payable": false,
      "stateMutability": "nonpayable",
      "type": "function",
      "signature": "0xe501fe3c"
    }
  ],
  "bytecode": "0x608060405234801561001057600080fd5b50613e14806100206000396000f30060806040526004361062000067576000357c0100000000000000000000000000000000000000000000000000000000900463ffffffff1680632f4f3316146200006c578063b7de9dae14620000ca578063c1ad191a146200013a578063e501fe3c14620001ab575b600080fd5b3480156200007957600080fd5b50620000b0600480360381019080803573ffffffffffffffffffffffffffffffffffffffff169060200190929190505050620002ab565b604051808215151515815260200191505060405180910390f35b348015620000d757600080fd5b50620000f860048036038101908080359060200190929190505050620002cb565b604051808273ffffffffffffffffffffffffffffffffffffffff1673ffffffffffffffffffffffffffffffffffffffff16815260200191505060405180910390f35b3480156200014757600080fd5b50620001526200030a565b6040518080602001828103825283818151815260200191508051906020019060200280838360005b83811015620001975780820151818401526020810190506200017a565b505050509050019250505060405180910390f35b348015620001b857600080fd5b50620002696004803603810190808035600019169060200190929190803590602001908201803590602001908080601f0160208091040260200160405190810160405280939291908181526020018383808284378201915050505050509192919290803590602001908201803590602001908080601f01602080910402602001604051908101604052809392919081815260200183838082843782019150505050505091929192905050506200039a565b604051808273ffffffffffffffffffffffffffffffffffffffff1673ffffffffffffffffffffffffffffffffffffffff16815260200191505060405180910390f35b60006020528060005260406000206000915054906101000a900460ff1681565b600181815481101515620002db57fe5b906000526020600020016000915054906101000a900473ffffffffffffffffffffffffffffffffffffffff1681565b606060018054806020026020016040519081016040528092919081815260200182805480156200039057602002820191906000526020600020905b8160009054906101000a900473ffffffffffffffffffffffffffffffffffffffff1673ffffffffffffffffffffffffffffffffffffffff168152602001906001019080831162000345575b5050505050905090565b600083838333620003aa62000748565b80856000191660001916815260200180602001806020018473ffffffffffffffffffffffffffffffffffffffff1673ffffffffffffffffffffffffffffffffffffffff168152602001838103835286818151815260200191508051906020019080838360005b838110156200042d57808201518184015260208101905062000410565b50505050905090810190601f1680156200045b5780820380516001836020036101000a031916815260200191505b50838103825285818151815260200191508051906020019080838360005b838110156200049657808201518184015260208101905062000479565b50505050905090810190601f168015620004c45780820380516001836020036101000a031916815260200191505b509650505050505050604051809103906000f080158015620004ea573d6000803e3d6000fd5b509050620004f881620005f1565b3373ffffffffffffffffffffffffffffffffffffffff167ff238fcd2133237bc5ae0e1f42086a193f4fddae976468b0797a9260c8f292219824286604051808473ffffffffffffffffffffffffffffffffffffffff1673ffffffffffffffffffffffffffffffffffffffff16815260200183815260200180602001828103825283818151815260200191508051906020019080838360005b83811015620005ad57808201518184015260208101905062000590565b50505050905090810190601f168015620005db5780820380516001836020036101000a031916815260200191505b5094505050505060405180910390a29392505050565b60016000808373ffffffffffffffffffffffffffffffffffffffff1673ffffffffffffffffffffffffffffffffffffffff16815260200190815260200160002060006101000a81548160ff02191690831515021790555060018190806001815401808255809150509060018203906000526020600020016000909192909190916101000a81548173ffffffffffffffffffffffffffffffffffffffff021916908373ffffffffffffffffffffffffffffffffffffffff160217905550507f4fb057ad4a26ed17a57957fa69c306f11987596069b89521c511fc9a894e61613382604051808373ffffffffffffffffffffffffffffffffffffffff1673ffffffffffffffffffffffffffffffffffffffff1681526020018273ffffffffffffffffffffffffffffffffffffffff1673ffffffffffffffffffffffffffffffffffffffff1681526020019250505060405180910390a150565b60405161368f806200075a83390190560060806040523480156200001157600080fd5b506040516200368f3803806200368f833981018060405281019080805190602001909291908051820192919060200180518201929190602001805190602001909291905050506200008283836012600180610bb8610fa0620000b16401000000000262001392176401000000009004565b6200009c816200025d640100000000026401000000009004565b8360d581600019169055505050505062000945565b60008060019054906101000a900460ff1680620000e35750620000e26200029f640100000000026401000000009004565b5b80620000fb57506000809054906101000a900460ff16155b151562000196576040517f08c379a000000000000000000000000000000000000000000000000000000000815260040180806020018281038252602e8152602001807f436f6e747261637420696e7374616e63652068617320616c726561647920626581526020017f656e20696e697469616c697a656400000000000000000000000000000000000081525060400191505060405180910390fd5b600060019054906101000a900460ff1690506001600060016101000a81548160ff02191690831515021790555060016000806101000a81548160ff021916908315150217905550620001fc33620002b06401000000000262001ca1176401000000009004565b6200021d8888886200043b6401000000000262000e00176401000000009004565b8460d1819055508360d2819055508260d3819055508160d48190555080600060016101000a81548160ff0219169083151502179055505050505050505050565b62000276620005a8640100000000026401000000009004565b15156200028257600080fd5b6200029c8162000600640100000000026401000000009004565b50565b600080303b90506000811491505090565b60008060019054906101000a900460ff1680620002e25750620002e16200029f640100000000026401000000009004565b5b80620002fa57506000809054906101000a900460ff16155b151562000395576040517f08c379a000000000000000000000000000000000000000000000000000000000815260040180806020018281038252602e8152602001807f436f6e747261637420696e7374616e63652068617320616c726561647920626581526020017f656e20696e697469616c697a656400000000000000000000000000000000000081525060400191505060405180910390fd5b600060019054906101000a900460ff1690506001600060016101000a81548160ff02191690831515021790555060016000806101000a81548160ff02191690831515021790555081603360006101000a81548173ffffffffffffffffffffffffffffffffffffffff021916908373ffffffffffffffffffffffffffffffffffffffff16021790555080600060016101000a81548160ff0219169083151502179055505050565b60008060019054906101000a900460ff16806200046d57506200046c6200029f640100000000026401000000009004565b5b806200048557506000809054906101000a900460ff16155b151562000520576040517f08c379a000000000000000000000000000000000000000000000000000000000815260040180806020018281038252602e8152602001807f436f6e747261637420696e7374616e63652068617320616c726561647920626581526020017f656e20696e697469616c697a656400000000000000000000000000000000000081525060400191505060405180910390fd5b600060019054906101000a900460ff1690506001600060016101000a81548160ff02191690831515021790555060016000806101000a81548160ff02191690831515021790555062000588848484620006fd640100000000026200221c176401000000009004565b80600060016101000a81548160ff02191690831515021790555050505050565b6000603360009054906101000a900473ffffffffffffffffffffffffffffffffffffffff1673ffffffffffffffffffffffffffffffffffffffff163373ffffffffffffffffffffffffffffffffffffffff1614905090565b600073ffffffffffffffffffffffffffffffffffffffff168173ffffffffffffffffffffffffffffffffffffffff16141515156200063d57600080fd5b8073ffffffffffffffffffffffffffffffffffffffff16603360009054906101000a900473ffffffffffffffffffffffffffffffffffffffff1673ffffffffffffffffffffffffffffffffffffffff167f8be0079c531659141344cd1fd0a4f28419497f9722a3daafe3b4186f6b6457e060405160405180910390a380603360006101000a81548173ffffffffffffffffffffffffffffffffffffffff021916908373ffffffffffffffffffffffffffffffffffffffff16021790555050565b60008060019054906101000a900460ff16806200072f57506200072e6200029f640100000000026401000000009004565b5b806200074757506000809054906101000a900460ff16155b1515620007e2576040517f08c379a000000000000000000000000000000000000000000000000000000000815260040180806020018281038252602e8152602001807f436f6e747261637420696e7374616e63652068617320616c726561647920626581526020017f656e20696e697469616c697a656400000000000000000000000000000000000081525060400191505060405180910390fd5b600060019054906101000a900460ff1690506001600060016101000a81548160ff02191690831515021790555060016000806101000a81548160ff02191690831515021790555083609b90805190602001906200084192919062000896565b5082609c90805190602001906200085a92919062000896565b5081609d60006101000a81548160ff021916908360ff16021790555080600060016101000a81548160ff02191690831515021790555050505050565b828054600181600116156101000203166002900490600052602060002090601f016020900481019282601f10620008d957805160ff19168380011785556200090a565b828001600101855582156200090a579182015b8281111562000909578251825591602001919060010190620008ec565b5b5090506200091991906200091d565b5090565b6200094291905b808211156200093e57600081600090555060010162000924565b5090565b90565b612d3a80620009556000396000f300608060405260043610610196576000357c0100000000000000000000000000000000000000000000000000000000900463ffffffff16806306fdde031461019b578063095ea7b31461022b578063112d37581461029057806314a962b6146102bb5780631624f6c6146102e657806318160ddd146103a257806323b872dd146103cd57806326a49e3714610452578063313ce5671461049357806339509351146104c457806356885ba114610529578063621d85311461060d578063638769f51461067357806370a08231146106b4578063715018a61461070b5780638da5cb5b146107225780638f32d59b1461077957806395d89b41146107a8578063a457c2d714610838578063a78d0ed01461089d578063a9059cbb146108c8578063a9d989b41461092d578063a9fb763c146109a0578063aa69a909146109e1578063b25ba02e14610a0c578063c4d66de814610a3f578063cd3293de14610a82578063cdf7f8e614610aad578063d96a094a14610af6578063dd62ed3e14610b2a578063e4849b3214610ba1578063f2fde38b14610be2575b600080fd5b3480156101a757600080fd5b506101b0610c25565b6040518080602001828103825283818151815260200191508051906020019080838360005b838110156101f05780820151818401526020810190506101d5565b50505050905090810190601f16801561021d5780820380516001836020036101000a031916815260200191505b509250505060405180910390f35b34801561023757600080fd5b50610276600480360381019080803573ffffffffffffffffffffffffffffffffffffffff16906020019092919080359060200190929190505050610cc7565b604051808215151515815260200191505060405180910390f35b34801561029c57600080fd5b506102a5610df4565b6040518082815260200191505060405180910390f35b3480156102c757600080fd5b506102d0610dfa565b6040518082815260200191505060405180910390f35b3480156102f257600080fd5b506103a0600480360381019080803590602001908201803590602001908080601f0160208091040260200160405190810160405280939291908181526020018383808284378201915050505050509192919290803590602001908201803590602001908080601f0160208091040260200160405190810160405280939291908181526020018383808284378201915050505050509192919290803560ff169060200190929190505050610e00565b005b3480156103ae57600080fd5b506103b7610f43565b6040518082815260200191505060405180910390f35b3480156103d957600080fd5b50610438600480360381019080803573ffffffffffffffffffffffffffffffffffffffff169060200190929190803573ffffffffffffffffffffffffffffffffffffffff16906020019092919080359060200190929190505050610f4d565b604051808215151515815260200191505060405180910390f35b34801561045e57600080fd5b5061047d600480360381019080803590602001909291905050506110ff565b6040518082815260200191505060405180910390f35b34801561049f57600080fd5b506104a8611144565b604051808260ff1660ff16815260200191505060405180910390f35b3480156104d057600080fd5b5061050f600480360381019080803573ffffffffffffffffffffffffffffffffffffffff1690602001909291908035906020019092919050505061115b565b604051808215151515815260200191505060405180910390f35b34801561053557600080fd5b5061060b600480360381019080803590602001908201803590602001908080601f0160208091040260200160405190810160405280939291908181526020018383808284378201915050505050509192919290803590602001908201803590602001908080601f0160208091040260200160405190810160405280939291908181526020018383808284378201915050505050509192919290803560ff16906020019092919080359060200190929190803590602001909291908035906020019092919080359060200190929190505050611392565b005b610671600480360381019080803590602001908201803590602001908080601f0160208091040260200160405190810160405280939291908181526020018383808284378201915050505050509192919290803590602001909291905050506114fe565b005b34801561067f57600080fd5b5061069e600480360381019080803590602001909291905050506116a2565b6040518082815260200191505060405180910390f35b3480156106c057600080fd5b506106f5600480360381019080803573ffffffffffffffffffffffffffffffffffffffff1690602001909291905050506116e5565b6040518082815260200191505060405180910390f35b34801561071757600080fd5b5061072061172e565b005b34801561072e57600080fd5b506107376117ea565b604051808273ffffffffffffffffffffffffffffffffffffffff1673ffffffffffffffffffffffffffffffffffffffff16815260200191505060405180910390f35b34801561078557600080fd5b5061078e611814565b604051808215151515815260200191505060405180910390f35b3480156107b457600080fd5b506107bd61186c565b6040518080602001828103825283818151815260200191508051906020019080838360005b838110156107fd5780820151818401526020810190506107e2565b50505050905090810190601f16801561082a5780820380516001836020036101000a031916815260200191505b509250505060405180910390f35b34801561084457600080fd5b50610883600480360381019080803573ffffffffffffffffffffffffffffffffffffffff1690602001909291908035906020019092919050505061190e565b604051808215151515815260200191505060405180910390f35b3480156108a957600080fd5b506108b2611b45565b6040518082815260200191505060405180910390f35b3480156108d457600080fd5b50610913600480360381019080803573ffffffffffffffffffffffffffffffffffffffff16906020019092919080359060200190929190505050611b4b565b604051808215151515815260200191505060405180910390f35b34801561093957600080fd5b5061099e600480360381019080803590602001908201803590602001908080601f016020809104026020016040519081016040528093929190818152602001838380828437820191505050505050919291929080359060200190929190505050611b62565b005b3480156109ac57600080fd5b506109cb60048036038101908080359060200190929190505050611c50565b6040518082815260200191505060405180910390f35b3480156109ed57600080fd5b506109f6611c95565b6040518082815260200191505060405180910390f35b348015610a1857600080fd5b50610a21611c9b565b60405180826000191660001916815260200191505060405180910390f35b348015610a4b57600080fd5b50610a80600480360381019080803573ffffffffffffffffffffffffffffffffffffffff169060200190929190505050611ca1565b005b348015610a8e57600080fd5b50610a97611e18565b6040518082815260200191505060405180910390f35b348015610ab957600080fd5b50610adc6004803603810190808035600019169060200190929190505050611e1e565b604051808215151515815260200191505060405180910390f35b610b1460048036038101908080359060200190929190505050611e71565b6040518082815260200191505060405180910390f35b348015610b3657600080fd5b50610b8b600480360381019080803573ffffffffffffffffffffffffffffffffffffffff169060200190929190803573ffffffffffffffffffffffffffffffffffffffff169060200190929190505050611f64565b6040518082815260200191505060405180910390f35b348015610bad57600080fd5b50610bcc60048036038101908080359060200190929190505050611feb565b6040518082815260200191505060405180910390f35b348015610bee57600080fd5b50610c23600480360381019080803573ffffffffffffffffffffffffffffffffffffffff1690602001909291905050506121ec565b005b6060609b8054600181600116156101000203166002900480601f016020809104026020016040519081016040528092919081815260200182805460018160011615610100020316600290048015610cbd5780601f10610c9257610100808354040283529160200191610cbd565b820191906000526020600020905b815481529060010190602001808311610ca057829003601f168201915b5050505050905090565b60008073ffffffffffffffffffffffffffffffffffffffff168373ffffffffffffffffffffffffffffffffffffffff1614151515610d0457600080fd5b81606760003373ffffffffffffffffffffffffffffffffffffffff1673ffffffffffffffffffffffffffffffffffffffff16815260200190815260200160002060008573ffffffffffffffffffffffffffffffffffffffff1673ffffffffffffffffffffffffffffffffffffffff168152602001908152602001600020819055508273ffffffffffffffffffffffffffffffffffffffff163373ffffffffffffffffffffffffffffffffffffffff167f8c5be1e5ebec7d5bd14f71427d1e84f3dd0314c0f7b2291e5b200ac8c7c3b925846040518082815260200191505060405180910390a36001905092915050565b60d15481565b60d35481565b60008060019054906101000a900460ff1680610e205750610e1f61220b565b5b80610e3757506000809054906101000a900460ff16155b1515610ed1576040517f08c379a000000000000000000000000000000000000000000000000000000000815260040180806020018281038252602e8152602001807f436f6e747261637420696e7374616e63652068617320616c726561647920626581526020017f656e20696e697469616c697a656400000000000000000000000000000000000081525060400191505060405180910390fd5b600060019054906101000a900460ff1690506001600060016101000a81548160ff02191690831515021790555060016000806101000a81548160ff021916908315150217905550610f2384848461221c565b80600060016101000a81548160ff02191690831515021790555050505050565b6000606854905090565b6000606760008573ffffffffffffffffffffffffffffffffffffffff1673ffffffffffffffffffffffffffffffffffffffff16815260200190815260200160002060003373ffffffffffffffffffffffffffffffffffffffff1673ffffffffffffffffffffffffffffffffffffffff168152602001908152602001600020548211151515610fda57600080fd5b61106982606760008773ffffffffffffffffffffffffffffffffffffffff1673ffffffffffffffffffffffffffffffffffffffff16815260200190815260200160002060003373ffffffffffffffffffffffffffffffffffffffff1673ffffffffffffffffffffffffffffffffffffffff1681526020019081526020016000205461239d90919063ffffffff16565b606760008673ffffffffffffffffffffffffffffffffffffffff1673ffffffffffffffffffffffffffffffffffffffff16815260200190815260200160002060003373ffffffffffffffffffffffffffffffffffffffff1673ffffffffffffffffffffffffffffffffffffffff168152602001908152602001600020819055506110f48484846123be565b600190509392505050565b600061113d60d05461112f61112485611116610f43565b6125dc90919063ffffffff16565b60d15460d3546125fd565b61239d90919063ffffffff16565b9050919050565b6000609d60009054906101000a900460ff16905090565b60008073ffffffffffffffffffffffffffffffffffffffff168373ffffffffffffffffffffffffffffffffffffffff161415151561119857600080fd5b61122782606760003373ffffffffffffffffffffffffffffffffffffffff1673ffffffffffffffffffffffffffffffffffffffff16815260200190815260200160002060008673ffffffffffffffffffffffffffffffffffffffff1673ffffffffffffffffffffffffffffffffffffffff168152602001908152602001600020546125dc90919063ffffffff16565b606760003373ffffffffffffffffffffffffffffffffffffffff1673ffffffffffffffffffffffffffffffffffffffff16815260200190815260200160002060008573ffffffffffffffffffffffffffffffffffffffff1673ffffffffffffffffffffffffffffffffffffffff168152602001908152602001600020819055508273ffffffffffffffffffffffffffffffffffffffff163373ffffffffffffffffffffffffffffffffffffffff167f8c5be1e5ebec7d5bd14f71427d1e84f3dd0314c0f7b2291e5b200ac8c7c3b925606760003373ffffffffffffffffffffffffffffffffffffffff1673ffffffffffffffffffffffffffffffffffffffff16815260200190815260200160002060008773ffffffffffffffffffffffffffffffffffffffff1673ffffffffffffffffffffffffffffffffffffffff168152602001908152602001600020546040518082815260200191505060405180910390a36001905092915050565b60008060019054906101000a900460ff16806113b257506113b161220b565b5b806113c957506000809054906101000a900460ff16155b1515611463576040517f08c379a000000000000000000000000000000000000000000000000000000000815260040180806020018281038252602e8152602001807f436f6e747261637420696e7374616e63652068617320616c726561647920626581526020017f656e20696e697469616c697a656400000000000000000000000000000000000081525060400191505060405180910390fd5b600060019054906101000a900460ff1690506001600060016101000a81548160ff02191690831515021790555060016000806101000a81548160ff0219169083151502179055506114b333611ca1565b6114be888888610e00565b8460d1819055508360d2819055508260d3819055508160d48190555080600060016101000a81548160ff0219169083151502179055505050505050505050565b6000611509826110ff565b90508034101515156115a9576040517f08c379a00000000000000000000000000000000000000000000000000000000081526004018080602001828103825260278152602001807f4d7573742073656e642072657175697369746520616d6f756e7420746f20707581526020017f7263686173652e0000000000000000000000000000000000000000000000000081525060400191505060405180910390fd5b6115b33383612661565b6115c5336115bf6117ea565b846123be565b7fda038144359a056b8f6f6103e7b61e9ae26499a4ec7b50836bbaaa03699f309183423360405180806020018481526020018373ffffffffffffffffffffffffffffffffffffffff1673ffffffffffffffffffffffffffffffffffffffff168152602001828103825285818151815260200191508051906020019080838360005b83811015611661578082015181840152602081019050611646565b50505050905090810190601f16801561168e5780820380516001836020036101000a031916815260200191505b5094505050505060405180910390a1505050565b60008060006116b68460d15460d3546125fd565b91506116c78460d25460d4546125fd565b90506116dc818361239d90919063ffffffff16565b92505050919050565b6000606660008373ffffffffffffffffffffffffffffffffffffffff1673ffffffffffffffffffffffffffffffffffffffff168152602001908152602001600020549050919050565b611736611814565b151561174157600080fd5b603360009054906101000a900473ffffffffffffffffffffffffffffffffffffffff1673ffffffffffffffffffffffffffffffffffffffff167ff8df31144d9c2f0f6b59d69b8b98abd5459d07f2742c4df920b25aae33c6482060405160405180910390a26000603360006101000a81548173ffffffffffffffffffffffffffffffffffffffff021916908373ffffffffffffffffffffffffffffffffffffffff160217905550565b6000603360009054906101000a900473ffffffffffffffffffffffffffffffffffffffff16905090565b6000603360009054906101000a900473ffffffffffffffffffffffffffffffffffffffff1673ffffffffffffffffffffffffffffffffffffffff163373ffffffffffffffffffffffffffffffffffffffff1614905090565b6060609c8054600181600116156101000203166002900480601f0160208091040260200160405190810160405280929190818152602001828054600181600116156101000203166002900480156119045780601f106118d957610100808354040283529160200191611904565b820191906000526020600020905b8154815290600101906020018083116118e757829003601f168201915b5050505050905090565b60008073ffffffffffffffffffffffffffffffffffffffff168373ffffffffffffffffffffffffffffffffffffffff161415151561194b57600080fd5b6119da82606760003373ffffffffffffffffffffffffffffffffffffffff1673ffffffffffffffffffffffffffffffffffffffff16815260200190815260200160002060008673ffffffffffffffffffffffffffffffffffffffff1673ffffffffffffffffffffffffffffffffffffffff1681526020019081526020016000205461239d90919063ffffffff16565b606760003373ffffffffffffffffffffffffffffffffffffffff1673ffffffffffffffffffffffffffffffffffffffff16815260200190815260200160002060008573ffffffffffffffffffffffffffffffffffffffff1673ffffffffffffffffffffffffffffffffffffffff168152602001908152602001600020819055508273ffffffffffffffffffffffffffffffffffffffff163373ffffffffffffffffffffffffffffffffffffffff167f8c5be1e5ebec7d5bd14f71427d1e84f3dd0314c0f7b2291e5b200ac8c7c3b925606760003373ffffffffffffffffffffffffffffffffffffffff1673ffffffffffffffffffffffffffffffffffffffff16815260200190815260200160002060008773ffffffffffffffffffffffffffffffffffffffff1673ffffffffffffffffffffffffffffffffffffffff168152602001908152602001600020546040518082815260200191505060405180910390a36001905092915050565b60d45481565b6000611b583384846123be565b6001905092915050565b611b7433611b6e6117ea565b836123be565b7fda038144359a056b8f6f6103e7b61e9ae26499a4ec7b50836bbaaa03699f309182423360405180806020018481526020018373ffffffffffffffffffffffffffffffffffffffff1673ffffffffffffffffffffffffffffffffffffffff168152602001828103825285818151815260200191508051906020019080838360005b83811015611c10578082015181840152602081019050611bf5565b50505050905090810190601f168015611c3d5780820380516001836020036101000a031916815260200191505b5094505050505060405180910390a15050565b6000611c8e611c7d611c7284611c64610f43565b61239d90919063ffffffff16565b60d25460d4546125fd565b60d05461239d90919063ffffffff16565b9050919050565b60d25481565b60d55481565b60008060019054906101000a900460ff1680611cc15750611cc061220b565b5b80611cd857506000809054906101000a900460ff16155b1515611d72576040517f08c379a000000000000000000000000000000000000000000000000000000000815260040180806020018281038252602e8152602001807f436f6e747261637420696e7374616e63652068617320616c726561647920626581526020017f656e20696e697469616c697a656400000000000000000000000000000000000081525060400191505060405180910390fd5b600060019054906101000a900460ff1690506001600060016101000a81548160ff02191690831515021790555060016000806101000a81548160ff02191690831515021790555081603360006101000a81548173ffffffffffffffffffffffffffffffffffffffff021916908373ffffffffffffffffffffffffffffffffffffffff16021790555080600060016101000a81548160ff0219169083151502179055505050565b60d05481565b6000611e286117ea565b73ffffffffffffffffffffffffffffffffffffffff163373ffffffffffffffffffffffffffffffffffffffff16141515611e6157600080fd5b8160d58160001916905550919050565b600080600080611e87611e82610f43565b6116a2565b9250611e92856127a1565b9350611ea4611e9f610f43565b6116a2565b9150611eb9838361239d90919063ffffffff16565b9050611ed08160d05461239d90919063ffffffff16565b60d081905550611ede6117ea565b73ffffffffffffffffffffffffffffffffffffffff166108fc829081150290604051600060405180830381858888f19350505050158015611f23573d6000803e3d6000fd5b50427f698e6ae5d786c1b7ebbb3f65f5c53b321f0c2d2cc5de830ede8183fac06ec425826040518082815260200191505060405180910390a2505050919050565b6000606760008473ffffffffffffffffffffffffffffffffffffffff1673ffffffffffffffffffffffffffffffffffffffff16815260200190815260200160002060008373ffffffffffffffffffffffffffffffffffffffff1673ffffffffffffffffffffffffffffffffffffffff16815260200190815260200160002054905092915050565b6000808211151561208a576040517f08c379a00000000000000000000000000000000000000000000000000000000081526004018080602001828103825260258152602001807f4d757374207370656e64206e6f6e2d7a65726f20616d6f756e74206f6620746f81526020017f6b656e732e00000000000000000000000000000000000000000000000000000081525060400191505060405180910390fd5b81612094336116e5565b10151515612130576040517f08c379a000000000000000000000000000000000000000000000000000000000815260040180806020018281038252602c8152602001807f53656e64657220646f6573206e6f74206861766520656e6f75676820746f6b6581526020017f6e7320746f207370656e642e000000000000000000000000000000000000000081525060400191505060405180910390fd5b61213982611c50565b90506121508160d05461239d90919063ffffffff16565b60d08190555061216033836129b5565b3373ffffffffffffffffffffffffffffffffffffffff166108fc829081150290604051600060405180830381858888f193505050501580156121a6573d6000803e3d6000fd5b50427f5501bc527b3cba3e6befc13767fc7728d2de83aad635948271290a5ebd9653018383604051808381526020018281526020019250505060405180910390a2919050565b6121f4611814565b15156121ff57600080fd5b61220881612b43565b50565b600080303b90506000811491505090565b60008060019054906101000a900460ff168061223c575061223b61220b565b5b8061225357506000809054906101000a900460ff16155b15156122ed576040517f08c379a000000000000000000000000000000000000000000000000000000000815260040180806020018281038252602e8152602001807f436f6e747261637420696e7374616e63652068617320616c726561647920626581526020017f656e20696e697469616c697a656400000000000000000000000000000000000081525060400191505060405180910390fd5b600060019054906101000a900460ff1690506001600060016101000a81548160ff02191690831515021790555060016000806101000a81548160ff02191690831515021790555083609b908051906020019061234a929190612c69565b5082609c9080519060200190612361929190612c69565b5081609d60006101000a81548160ff021916908360ff16021790555080600060016101000a81548160ff02191690831515021790555050505050565b6000808383111515156123af57600080fd5b82840390508091505092915050565b606660008473ffffffffffffffffffffffffffffffffffffffff1673ffffffffffffffffffffffffffffffffffffffff16815260200190815260200160002054811115151561240c57600080fd5b600073ffffffffffffffffffffffffffffffffffffffff168273ffffffffffffffffffffffffffffffffffffffff161415151561244857600080fd5b61249a81606660008673ffffffffffffffffffffffffffffffffffffffff1673ffffffffffffffffffffffffffffffffffffffff1681526020019081526020016000205461239d90919063ffffffff16565b606660008573ffffffffffffffffffffffffffffffffffffffff1673ffffffffffffffffffffffffffffffffffffffff1681526020019081526020016000208190555061252f81606660008573ffffffffffffffffffffffffffffffffffffffff1673ffffffffffffffffffffffffffffffffffffffff168152602001908152602001600020546125dc90919063ffffffff16565b606660008473ffffffffffffffffffffffffffffffffffffffff1673ffffffffffffffffffffffffffffffffffffffff168152602001908152602001600020819055508173ffffffffffffffffffffffffffffffffffffffff168373ffffffffffffffffffffffffffffffffffffffff167fddf252ad1be2c89b69c2b068fc378daa952ba7f163c4a11628f55a4df523b3ef836040518082815260200191505060405180910390a3505050565b60008082840190508381101515156125f357600080fd5b8091505092915050565b6000806126146001856125dc90919063ffffffff16565b9050612657670de0b6b3a76400006126498561263b85868b0a612c3f90919063ffffffff16565b612c3f90919063ffffffff16565b612c3f90919063ffffffff16565b9150509392505050565b60008273ffffffffffffffffffffffffffffffffffffffff161415151561268757600080fd5b61269c816068546125dc90919063ffffffff16565b6068819055506126f481606660008573ffffffffffffffffffffffffffffffffffffffff1673ffffffffffffffffffffffffffffffffffffffff168152602001908152602001600020546125dc90919063ffffffff16565b606660008473ffffffffffffffffffffffffffffffffffffffff1673ffffffffffffffffffffffffffffffffffffffff168152602001908152602001600020819055508173ffffffffffffffffffffffffffffffffffffffff16600073ffffffffffffffffffffffffffffffffffffffff167fddf252ad1be2c89b69c2b068fc378daa952ba7f163c4a11628f55a4df523b3ef836040518082815260200191505060405180910390a35050565b60008082111515612840576040517f08c379a00000000000000000000000000000000000000000000000000000000081526004018080602001828103825260278152602001807f4d7573742072657175657374206e6f6e2d7a65726f20616d6f756e74206f662081526020017f746f6b656e732e0000000000000000000000000000000000000000000000000081525060400191505060405180910390fd5b612849826110ff565b90508034101515156128e9576040517f08c379a00000000000000000000000000000000000000000000000000000000081526004018080602001828103825260218152602001807f446964206e6f742073656e6420656e6f75676820657468657220746f2062757981526020017f210000000000000000000000000000000000000000000000000000000000000081525060400191505060405180910390fd5b6128fe8160d0546125dc90919063ffffffff16565b60d08190555061290e3383612661565b80341115612970573373ffffffffffffffffffffffffffffffffffffffff166108fc612943833461239d90919063ffffffff16565b9081150290604051600060405180830381858888f1935050505015801561296e573d6000803e3d6000fd5b505b427fef06a9ba77137aabff72e359d8cc6f2af40b4135811720e6efe22ae19692b5978383604051808381526020018281526020019250505060405180910390a2919050565b60008273ffffffffffffffffffffffffffffffffffffffff16141515156129db57600080fd5b606660008373ffffffffffffffffffffffffffffffffffffffff1673ffffffffffffffffffffffffffffffffffffffff168152602001908152602001600020548111151515612a2957600080fd5b612a3e8160685461239d90919063ffffffff16565b606881905550612a9681606660008573ffffffffffffffffffffffffffffffffffffffff1673ffffffffffffffffffffffffffffffffffffffff1681526020019081526020016000205461239d90919063ffffffff16565b606660008473ffffffffffffffffffffffffffffffffffffffff1673ffffffffffffffffffffffffffffffffffffffff16815260200190815260200160002081905550600073ffffffffffffffffffffffffffffffffffffffff168273ffffffffffffffffffffffffffffffffffffffff167fddf252ad1be2c89b69c2b068fc378daa952ba7f163c4a11628f55a4df523b3ef836040518082815260200191505060405180910390a35050565b600073ffffffffffffffffffffffffffffffffffffffff168173ffffffffffffffffffffffffffffffffffffffff1614151515612b7f57600080fd5b8073ffffffffffffffffffffffffffffffffffffffff16603360009054906101000a900473ffffffffffffffffffffffffffffffffffffffff1673ffffffffffffffffffffffffffffffffffffffff167f8be0079c531659141344cd1fd0a4f28419497f9722a3daafe3b4186f6b6457e060405160405180910390a380603360006101000a81548173ffffffffffffffffffffffffffffffffffffffff021916908373ffffffffffffffffffffffffffffffffffffffff16021790555050565b600080600083111515612c5157600080fd5b8284811515612c5c57fe5b0490508091505092915050565b828054600181600116156101000203166002900490600052602060002090601f016020900481019282601f10612caa57805160ff1916838001178555612cd8565b82800160010185558215612cd8579182015b82811115612cd7578251825591602001919060010190612cbc565b5b509050612ce59190612ce9565b5090565b612d0b91905b80821115612d07576000816000905550600101612cef565b5090565b905600a165627a7a723058201b1389fba8aa51230250958752fd77c28ea73812e1ecfcbe6837e2d18f7100b40029a165627a7a72305820e383c2a8de9c761c6ce746a10d550d3f783f48890d40fccf9daa159df819488c0029",
  "source": "pragma solidity ^0.4.24;\n\nimport \"./Factory.sol\";\nimport \"./PersonalEconomy.sol\";\n\ncontract PersonalEconomyFactory is Factory {\n\n    event Created(address token_address, address indexed owner_address, uint256 time, string name);\n\n    /*\n     * Public functions\n     */\n    /// @dev Allows verified creation of custom token.\n    /// @param _name String for token name.\n    /// @param _symbol String for token symbol.\n    /// @return Returns token address.\n    function create(bytes32 _mhash, string _name, string _symbol)\n        public\n        returns (address tokenAddress)\n    {\n        tokenAddress = new PersonalEconomy(_mhash, _name, _symbol, msg.sender);\n        \n        register(tokenAddress);\n        emit Created(tokenAddress, msg.sender, now, _name);\n    }\n}\n",
  "sourcePath": "/home/volt/workspaces/convergentcx/Arena/contracts/PersonalEconomyFactory.sol",
  "compiler": {
    "name": "solc",
    "version": "0.4.25+commit.59dbf8f1.Emscripten.clang"
  },
  "schemaVersion": "3.0.0-beta.1",
  "updatedAt": "2018-12-17T02:42:21.227Z",
  "devdoc": {
    "methods": {
      "create(bytes32,string,string)": {
        "details": "Allows verified creation of custom token.",
        "params": {
          "_name": "String for token name.",
          "_symbol": "String for token symbol."
        },
        "return": "Returns token address."
      }
    }
  },
  "userdoc": {
    "methods": {}
  }
}